{
  "_format": "hh-sol-artifact-1",
  "contractName": "RegionGuard",
  "sourceName": "contracts/RegionGuard.sol",
  "abi": [
    {
      "inputs": [],
      "stateMutability": "nonpayable",
      "type": "constructor"
    },
    {
      "inputs": [],
      "name": "AccessControlBadConfirmation",
      "type": "error"
    },
    {
      "inputs": [
        {
          "internalType": "address",
          "name": "account",
          "type": "address"
        },
        {
          "internalType": "bytes32",
          "name": "neededRole",
          "type": "bytes32"
        }
      ],
      "name": "AccessControlUnauthorizedAccount",
      "type": "error"
    },
    {
      "inputs": [],
      "name": "ReentrancyGuardReentrantCall",
      "type": "error"
    },
    {
      "anonymous": false,
      "inputs": [
        {
          "indexed": true,
          "internalType": "address",
          "name": "user",
          "type": "address"
        },
        {
          "indexed": true,
          "internalType": "bytes32",
          "name": "regionHash",
          "type": "bytes32"
        }
      ],
      "name": "AccessGranted",
      "type": "event"
    },
    {
      "anonymous": false,
      "inputs": [
        {
          "indexed": true,
          "internalType": "bytes32",
          "name": "regionHash",
          "type": "bytes32"
        },
        {
          "indexed": false,
          "internalType": "uint256",
          "name": "newCap",
          "type": "uint256"
        }
      ],
      "name": "RegionCapUpdated",
      "type": "event"
    },
    {
      "anonymous": false,
      "inputs": [
        {
          "indexed": true,
          "internalType": "bytes32",
          "name": "regionHash",
          "type": "bytes32"
        },
        {
          "indexed": false,
          "internalType": "uint256",
          "name": "cap",
          "type": "uint256"
        }
      ],
      "name": "RegionInitialized",
      "type": "event"
    },
    {
      "anonymous": false,
      "inputs": [
        {
          "indexed": true,
          "internalType": "bytes32",
          "name": "role",
          "type": "bytes32"
        },
        {
          "indexed": true,
          "internalType": "bytes32",
          "name": "previousAdminRole",
          "type": "bytes32"
        },
        {
          "indexed": true,
          "internalType": "bytes32",
          "name": "newAdminRole",
          "type": "bytes32"
        }
      ],
      "name": "RoleAdminChanged",
      "type": "event"
    },
    {
      "anonymous": false,
      "inputs": [
        {
          "indexed": true,
          "internalType": "bytes32",
          "name": "role",
          "type": "bytes32"
        },
        {
          "indexed": true,
          "internalType": "address",
          "name": "account",
          "type": "address"
        },
        {
          "indexed": true,
          "internalType": "address",
          "name": "sender",
          "type": "address"
        }
      ],
      "name": "RoleGranted",
      "type": "event"
    },
    {
      "anonymous": false,
      "inputs": [
        {
          "indexed": true,
          "internalType": "bytes32",
          "name": "role",
          "type": "bytes32"
        },
        {
          "indexed": true,
          "internalType": "address",
          "name": "account",
          "type": "address"
        },
        {
          "indexed": true,
          "internalType": "address",
          "name": "sender",
          "type": "address"
        }
      ],
      "name": "RoleRevoked",
      "type": "event"
    },
    {
      "inputs": [],
      "name": "ADMIN_ROLE",
      "outputs": [
        {
          "internalType": "bytes32",
          "name": "",
          "type": "bytes32"
        }
      ],
      "stateMutability": "view",
      "type": "function"
    },
    {
      "inputs": [],
      "name": "DEFAULT_ADMIN_ROLE",
      "outputs": [
        {
          "internalType": "bytes32",
          "name": "",
          "type": "bytes32"
        }
      ],
      "stateMutability": "view",
      "type": "function"
    },
    {
      "inputs": [],
      "name": "DEFAULT_CAP",
      "outputs": [
        {
          "internalType": "uint256",
          "name": "",
          "type": "uint256"
        }
      ],
      "stateMutability": "view",
      "type": "function"
    },
    {
      "inputs": [
        {
          "internalType": "bytes32",
          "name": "role",
          "type": "bytes32"
        }
      ],
      "name": "getRoleAdmin",
      "outputs": [
        {
          "internalType": "bytes32",
          "name": "",
          "type": "bytes32"
        }
      ],
      "stateMutability": "view",
      "type": "function"
    },
    {
      "inputs": [
        {
          "internalType": "bytes32",
          "name": "role",
          "type": "bytes32"
        },
        {
          "internalType": "address",
          "name": "account",
          "type": "address"
        }
      ],
      "name": "grantRole",
      "outputs": [],
      "stateMutability": "nonpayable",
      "type": "function"
    },
    {
      "inputs": [
        {
          "internalType": "address",
          "name": "",
          "type": "address"
        }
      ],
      "name": "hasAccess",
      "outputs": [
        {
          "internalType": "bool",
          "name": "",
          "type": "bool"
        }
      ],
      "stateMutability": "view",
      "type": "function"
    },
    {
      "inputs": [
        {
          "internalType": "bytes32",
          "name": "role",
          "type": "bytes32"
        },
        {
          "internalType": "address",
          "name": "account",
          "type": "address"
        }
      ],
      "name": "hasRole",
      "outputs": [
        {
          "internalType": "bool",
          "name": "",
          "type": "bool"
        }
      ],
      "stateMutability": "view",
      "type": "function"
    },
    {
      "inputs": [
        {
          "internalType": "bytes32",
          "name": "",
          "type": "bytes32"
        }
      ],
      "name": "nullifiers",
      "outputs": [
        {
          "internalType": "bool",
          "name": "",
          "type": "bool"
        }
      ],
      "stateMutability": "view",
      "type": "function"
    },
    {
      "inputs": [
        {
          "internalType": "bytes32",
          "name": "",
          "type": "bytes32"
        }
      ],
      "name": "regionCaps",
      "outputs": [
        {
          "internalType": "uint256",
          "name": "",
          "type": "uint256"
        }
      ],
      "stateMutability": "view",
      "type": "function"
    },
    {
      "inputs": [
        {
          "internalType": "bytes32",
          "name": "",
          "type": "bytes32"
        }
      ],
      "name": "regionCounts",
      "outputs": [
        {
          "internalType": "uint256",
          "name": "",
          "type": "uint256"
        }
      ],
      "stateMutability": "view",
      "type": "function"
    },
    {
      "inputs": [
        {
          "internalType": "bytes32",
          "name": "role",
          "type": "bytes32"
        },
        {
          "internalType": "address",
          "name": "callerConfirmation",
          "type": "address"
        }
      ],
      "name": "renounceRole",
      "outputs": [],
      "stateMutability": "nonpayable",
      "type": "function"
    },
    {
      "inputs": [
        {
          "internalType": "bytes32",
          "name": "regionHash",
          "type": "bytes32"
        },
        {
          "internalType": "bytes32",
          "name": "nullifierHash",
          "type": "bytes32"
        },
        {
          "internalType": "bytes",
          "name": "proof",
          "type": "bytes"
        }
      ],
      "name": "requestAccess",
      "outputs": [],
      "stateMutability": "nonpayable",
      "type": "function"
    },
    {
      "inputs": [
        {
          "internalType": "bytes32",
          "name": "role",
          "type": "bytes32"
        },
        {
          "internalType": "address",
          "name": "account",
          "type": "address"
        }
      ],
      "name": "revokeRole",
      "outputs": [],
      "stateMutability": "nonpayable",
      "type": "function"
    },
    {
      "inputs": [
        {
          "internalType": "bytes32",
          "name": "regionHash",
          "type": "bytes32"
        },
        {
          "internalType": "uint256",
          "name": "cap",
          "type": "uint256"
        }
      ],
      "name": "setRegionCap",
      "outputs": [],
      "stateMutability": "nonpayable",
      "type": "function"
    },
    {
      "inputs": [
        {
          "internalType": "bytes4",
          "name": "interfaceId",
          "type": "bytes4"
        }
      ],
      "name": "supportsInterface",
      "outputs": [
        {
          "internalType": "bool",
          "name": "",
          "type": "bool"
        }
      ],
      "stateMutability": "view",
      "type": "function"
    }
  ],
  "bytecode": "0x608060405234801561001057600080fd5b5060018055610020600033610051565b5061004b7fa49807205ce4d355092ef5a8a18f56e8913cf4a201fbe287825b095693c2177533610051565b506100fd565b6000828152602081815260408083206001600160a01b038516845290915281205460ff166100f3576000838152602081815260408083206001600160a01b03861684529091529020805460ff191660011790556100ab3390565b6001600160a01b0316826001600160a01b0316847f2f8788117e7eff1d82e926ec794901d17c78024a50270940304540a733656f0d60405160405180910390a45060016100f7565b5060005b92915050565b61090f8061010c6000396000f3fe608060405234801561001057600080fd5b50600436106100f55760003560e01c806352cfe8121161009757806395a078e81161006657806395a078e814610233578063a217fddf14610256578063b5e476081461025e578063d547741f1461027157600080fd5b806352cfe812146101c65780636c69b27e146101d957806375b238fc146101f957806391d148541461022057600080fd5b80632f2ff15d116100d35780632f2ff15d146101765780633434223c1461018b57806336568abe146101935780634a60b804146101a657600080fd5b806301ffc9a7146100fa578063248a9ca3146101225780632997e86b14610153575b600080fd5b61010d610108366004610769565b610284565b60405190151581526020015b60405180910390f35b61014561013036600461079a565b60009081526020819052604090206001015490565b604051908152602001610119565b61010d61016136600461079a565b60046020526000908152604090205460ff1681565b6101896101843660046107cf565b6102bb565b005b610145600a81565b6101896101a13660046107cf565b6102e6565b6101456101b436600461079a565b60036020526000908152604090205481565b6101896101d43660046107fb565b61031e565b6101456101e736600461079a565b60026020526000908152604090205481565b6101457fa49807205ce4d355092ef5a8a18f56e8913cf4a201fbe287825b095693c2177581565b61010d61022e3660046107cf565b61039a565b61010d61024136600461081d565b60056020526000908152604090205460ff1681565b610145600081565b61018961026c366004610838565b6103c3565b61018961027f3660046107cf565b6105d3565b60006001600160e01b03198216637965db0b60e01b14806102b557506301ffc9a760e01b6001600160e01b03198316145b92915050565b6000828152602081905260409020600101546102d6816105f8565b6102e08383610605565b50505050565b6001600160a01b038116331461030f5760405163334bd91960e11b815260040160405180910390fd5b6103198282610697565b505050565b7fa49807205ce4d355092ef5a8a18f56e8913cf4a201fbe287825b095693c21775610348816105f8565b600083815260036020526040908190208390555183907fe26f09c033fcde83bc7d219c98f7973fc135a23ac73811ad6da66da9ff940ecb9061038d9085815260200190565b60405180910390a2505050565b6000918252602082815260408084206001600160a01b0393909316845291905290205460ff1690565b6103cb610702565b3360009081526005602052604090205460ff16156104305760405162461bcd60e51b815260206004820152601960248201527f57616c6c657420616c726561647920686173206163636573730000000000000060448201526064015b60405180910390fd5b60008381526004602052604090205460ff161561048f5760405162461bcd60e51b815260206004820152601760248201527f43726564656e7469616c20616c726561647920757365640000000000000000006044820152606401610427565b600084815260026020908152604080832054600390925282205490918190036104fe5750600085815260036020908152604091829020600a90819055915182815287917f1da629a39f8802a7c7d2597257958e5b9f2eae6ce063cd2298eaa40cc36e4d92910160405180910390a25b80821061054d5760405162461bcd60e51b815260206004820152601760248201527f526567696f6e20636170616369747920726561636865640000000000000000006044820152606401610427565b6000858152600460205260409020805460ff191660019081179091556105749083906108b8565b600087815260026020908152604080832093909355338083526005909152828220805460ff1916600117905591518892917fbd4f54568b7c91392f03009967e46b0688bd75843f35612613c087fd973cea5391a350506102e060018055565b6000828152602081905260409020600101546105ee816105f8565b6102e08383610697565b610602813361072c565b50565b6000610611838361039a565b61068f576000838152602081815260408083206001600160a01b03861684529091529020805460ff191660011790556106473390565b6001600160a01b0316826001600160a01b0316847f2f8788117e7eff1d82e926ec794901d17c78024a50270940304540a733656f0d60405160405180910390a45060016102b5565b5060006102b5565b60006106a3838361039a565b1561068f576000838152602081815260408083206001600160a01b0386168085529252808320805460ff1916905551339286917ff6391f5c32d9c69d2a47ea670b442974b53935d1edc7fd64eb21e047a839171b9190a45060016102b5565b60026001540361072557604051633ee5aeb560e01b815260040160405180910390fd5b6002600155565b610736828261039a565b6107655760405163e2517d3f60e01b81526001600160a01b038216600482015260248101839052604401610427565b5050565b60006020828403121561077b57600080fd5b81356001600160e01b03198116811461079357600080fd5b9392505050565b6000602082840312156107ac57600080fd5b5035919050565b80356001600160a01b03811681146107ca57600080fd5b919050565b600080604083850312156107e257600080fd5b823591506107f2602084016107b3565b90509250929050565b6000806040838503121561080e57600080fd5b50508035926020909101359150565b60006020828403121561082f57600080fd5b610793826107b3565b6000806000806060858703121561084e57600080fd5b8435935060208501359250604085013567ffffffffffffffff8082111561087457600080fd5b818701915087601f83011261088857600080fd5b81358181111561089757600080fd5b8860208285010111156108a957600080fd5b95989497505060200194505050565b808201808211156102b557634e487b7160e01b600052601160045260246000fdfea264697066735822122041083d1d78df3987f55aea3722932757a0b9f8d0e4d92910380607c07f0d0d5a64736f6c63430008140033",
  "linkReferences": {},
  "deployedLinkReferences": {}
}